:100000000C9462000C948A000C948A000C948A0070
:100010000C948A000C948A000C948A000C946F064D
:100020000C948A000C948A000C948A000C948A0028
:100030000C948A000C948A000C948A000C948A0018
:100040000C94CD050C948A000C943D060C94170674
:100050000C948A000C948A000C948A000C948A00F8
:100060000C948A000C948A00000000080002010031
:100070000003040700000000000000000000000072
:10008000240027002A000000000023002600290089
:1000900000000000250028002B00040404040404D0
:1000A0000404020202020202030303030303010227
:1000B00004081020408001020408102001020408F6
:1000C0001020940611241FBECFEFD8E0DEBFCDBFB5
:1000D00011E0A0E0B1E0EEE7F7E102C005900D927B
:1000E000A435B107D9F722E0A4E5B1E001C01D9223
:1000F000A33CB207E1F710E0C2E6D0E004C02197CC
:10010000FE010E94920AC136D107C9F70E949907E1
:100110000C94BD0B0C940000833081F028F48130E6
:1001200099F08230A9F008958730A9F08830C9F09D
:100130008430B1F4809180008F7D03C08091800075
:100140008F7780938000089584B58F7784BD08955C
:1001500084B58F7DFBCF8091B0008F778093B00006
:1001600008958091B0008F7DF9CF1F93CF93DF93D7
:10017000282F30E0F901E859FF4F8491F901E25549
:10018000FF4FD491F901E656FF4FC491CC23A9F05B
:10019000162F81110E948C00EC2FF0E0EE0FFF1F54
:1001A000E057FF4FA591B4918FB7F894EC911111DE
:1001B00008C0D095DE23DC938FBFDF91CF911F91D4
:1001C0000895DE2BF8CFCF93DF9390E0FC01E2554A
:1001D000FF4F249186569F4FFC0184918823C9F0DC
:1001E00090E0880F991FFC01E458FF4FA591B4914E
:1001F000FC01E057FF4FC591D49161110DC09FB72D
:10020000F8948C91209582238C93888128232883CD
:100210009FBFDF91CF910895623051F49FB7F8945A
:100220003C91822F809583238C93E8812E2BEFCFF6
:100230008FB7F894EC912E2B2C938FBFEACF3FB75A
:10024000F8948091710190917201A0917301B09125
:10025000740126B5A89B05C02F3F19F00196A11D7A
:10026000B11D3FBFBA2FA92F982F8827BC01CD0100
:10027000620F711D811D911D42E0660F771F881F5F
:10028000991F4A95D1F70895AF92BF92CF92DF920E
:10029000EF92FF920F931F93CF93DF936C017B013B
:1002A0008B01040F151FEB015E01AE18BF08C017CC
:1002B000D10759F06991D601ED91FC910190F0813F
:1002C000E02DC6010995892B79F7C501DF91CF9102
:1002D0001F910F91FF90EF90DF90CF90BF90AF9064
:1002E0000895FC01538D448D252F30E0842F90E03C
:1002F000821B930B541710F0CF9608950197089521
:10030000FC01918D828D981761F0A28DAE0FBF2FE9
:10031000B11D5D968C91928D9F5F9F73928F90E03F
:1003200008958FEF9FEF0895FC01918D828D9817AE
:1003300031F0828DE80FF11D858D90E008958FEFEB
:100340009FEF0895FC01918D228D892F90E0805CB4
:100350009F4F821B91098F739927089585E791E03C
:100360000E94A20121E0892B09F420E0822F089548
:1003700080E090E0892B29F00E94AE0181110C945D
:1003800000000895FC01A48DA80FB92FB11DA35A38
:10039000BF4F2C91848D90E001968F739927848FA5
:1003A000A689B7892C93A089B1898C9183708064C8
:1003B0008C93938D848D981306C00288F389E02D69
:1003C00080818F7D80830895EF92FF920F931F931A
:1003D000CF93DF93EC0181E0888F9B8D8C8D9813F8
:1003E0001AC0E889F989808185FF15C09FB7F89404
:1003F000EE89FF896083E889F98980818370806450
:1004000080839FBF81E090E0DF91CF911F910F919A
:10041000FF90EF900895F62E0B8D10E00F5F1F4FA9
:100420000F731127E02E8C8D8E110CC00FB607FCB8
:10043000FACFE889F989808185FFF5CFCE010E9446
:10044000C201F1CFEB8DEC0FFD2FF11DE35AFF4FF1
:10045000F0829FB7F8940B8FEA89FB8980818062D4
:10046000CFCFCF93DF93EC01888D8823B9F0AA8991
:10047000BB89E889F9898C9185FD03C0808186FD5F
:100480000DC00FB607FCF7CF8C9185FFF2CF8081AE
:1004900085FFEDCFCE010E94C201E9CFDF91CF9160
:1004A0000895089508950895CF92DF92EF92FF92F4
:1004B0001F93CF93DF93EC01188511110AC010E050
:1004C000812FDF91CF911F91FF90EF90DF90CF9020
:1004D00008958FB7F89440916D0150916E0160912D
:1004E0006F01709170018FBFC880D980EA80FB8056
:1004F0004C155D056E057F0528F4488359836A8392
:100500007B83DDCF4C195D096E097F09CC80DD80CE
:10051000EE80FF804C155D056E057F0580F2E98554
:10052000FA85309769F209951886CACF2FB7F894E3
:1005300040916D0150916E0160916F017091700159
:100540002FBFFC01408351836283738321E02087A6
:100550000895FC018281938108950F931F93CF9397
:10056000DF93EC010A811B81E881F9810684F7851C
:10057000E02D099521E00817190709F420E02D83E3
:10058000822FDF91CF911F910F910895FC01648319
:100590000895FC0184810895CF93DF93EC018C8151
:1005A000882339F198859E3008F09E5097709064AA
:1005B00090937C0080917A00806480937A0080918F
:1005C0007A0086FDFCCF60917800709179007B8382
:1005D0006A83072E000C880B990B0E944E092AE0B3
:1005E00038E240EA5BE30E94030A6A877B878C87D4
:1005F0009D87DF91CF91089560E0FC0180850C9488
:10060000E300FC0182810C94B500FC016483089531
:10061000FC0184810895CF93DF93EC0161E08A812E
:100620000E94E30060E08A81DF91CF910C94B500D5
:10063000FC01828193810895FC0164830895FC018B
:1006400084810895FC0184818111858108950F932F
:100650001F93CF93DF93EC018C81882309F43DC075
:10066000988581E02A813B819217130609F480E086
:100670008A872E813F813327F901E859FF4F849102
:10068000F901E255FF4F0491F901E656FF4F14912D
:10069000112341F181110E948C00E12FF0E0EE0F57
:1006A000FF1FEA57FF4FA591B491EC910E2331E063
:1006B00020E009F430E0832F922F9B838A832C81E2
:1006C000222329F0388521E03817190609F420E0A3
:1006D0008A85821751F081E08D83DF91CF911F9140
:1006E0000F91089590E080E0E8CF1D82F6CF62E0A0
:1006F000FC0186810C94E300CF93DF93C6EAD2E03D
:1007000060E08A810E94B5001D82DF91CF9108953B
:1007100084EB92E00E9427039091B8022091BC02E2
:10072000992341F081E04091B6025091B70224171D
:10073000150609F480E0281729F1992319F1809111
:10074000B9028823F9F02FB7F89480916D01909148
:100750006E01A0916F01B09170012FBF8093B00224
:100760009093B102A093B202B093B30261E0809182
:10077000A8020E94B50081E08093AB0284E692E07B
:100780000C94960208958F929F92AF92BF920F930E
:100790001F93CF93DF93CDB7DEB7A1970FB6F89431
:1007A000DEBF0FBECDBF19A2423008F44AE08E0171
:1007B0000F5D1F4F842E912CB12CA12CA50194010B
:1007C0000E94700AE62FB901CA01EA3044F5E05DE3
:1007D000D801EE938D01232B242B252B79F790E064
:1007E00080E0109769F0FD0101900020E9F7319752
:1007F000AF014A1B5B0BBD0185E791E00E944401FC
:10080000A1960FB6F894DEBF0FBECDBFDF91CF919A
:100810001F910F91BF90AF909F908F900895E95CCA
:10082000D7CFCF92DF92EF92FF92CF93DF936C01FD
:10083000990FEE08FF08F7FE23C06DE285E791E00F
:100840000E94E401EC0166277727CB016C197D0932
:100850008E099F094AE00E94C303C80FD91F42E0D6
:1008600050E060E571E085E791E00E9444018C0F63
:100870009D1FDF91CF91FF90EF90DF90CF90089573
:100880004AE0C701B6010E94C303EC01E8CFCF9252
:10089000DF92EF92FF9282E192E00E94CC0280917F
:1008A0001602882309F491C0C0901C02D0901D024A
:1008B000E0901E02F0901F0220E030E0A901C70185
:1008C000B6010E94FE0987FD21C02AE939E949E9FC
:1008D0005EE3C701B6010E9411091816BCF02AE0B8
:1008E00037E545ED52E4C701B6010E94030A20E056
:1008F00030E048EC52E40E94030A0E941609CB0142
:10090000FF90EF90DF90CF900C9411042AE939E921
:1009100049E95EE3C701B6010E94FE091816CCF44E
:100920002AE939E949E15FE3C701B6010E941109EB
:1009300018167CF026EF38EA4AEB52E4C701B601FC
:100940000E94030A20E030E040E850E40E94A5083D
:10095000CECF2AE939E949E15FE3C701B6010E9438
:10096000FE091816BCF426E636E646E65FE3C70144
:10097000B6010E94110918166CF026EF38EA42E918
:1009800052E4C701B6010E94030A20E030E040E8CB
:1009900051E4DCCF26E636E646E65FE3C701B60162
:1009A0000E94FE0918166CF425E83BE64BEA52E477
:1009B000C701B6010E94030A20E030E040EA50E49B
:1009C000C5CF60E070E0CB0192CF60E070E0CB017A
:1009D00094CF0F931F9380913702882309F446C068
:1009E000E0912A02F0912B02808190912402892BC0
:1009F0008083E0912602F091270280819091240269
:100A0000892B80838BE290E00197F1F7E091260239
:100A1000F091270290818091240280958923808320
:100A200080913202882351F0E0912A02F0912B024A
:100A3000908180912402809589238083E09128020F
:100A4000F0912902808190912502892359F190E04B
:100A500080E0BC0190E080E029E330E040E050E03D
:100A60000E94700A3093360220933502809135023D
:100A7000909136020E94110480913702882309F474
:100A800083C02091350230913602809133029091DB
:100A900034028217930714F0821B930B1F910F915E
:100AA0000C9411040E941F01AB01BC0180912C0227
:100AB00090912D02B0E0A0E08855994EAF4FBF4F06
:100AC000840F951FA61FB71F80932E0290932F02AD
:100AD000A0933002B0933102E0912802F0912902F4
:100AE000808190912502892381F40E941F01009149
:100AF0002E0210912F022091300230913102061700
:100B000017072807390740F7A2CF0E941F0120913D
:100B10002C0230912D02620F731F811D911D609375
:100B20002E0270932F028093300290933102E09155
:100B30002802F0912902808190912502892381F079
:100B40000E941F0100912E0210912F02209130026D
:100B500030913102061717072807390740F777CF7A
:100B60000E941F0120912C0230912D02A9014550B5
:100B7000510920912E0230912F02FA01E21BF30B52
:100B8000CF01860F971F65CF90E080E087CF0C9450
:100B9000340B0C94340B0C94340B1F920F920FB641
:100BA0000F9211242F933F938F939F93AF93BF93F3
:100BB00080916D0190916E01A0916F01B0917001D3
:100BC00030916C0123E0230F2D3758F50196A11DBC
:100BD000B11D20936C0180936D0190936E01A093E1
:100BE0006F01B09370018091710190917201A09199
:100BF0007301B09174010196A11DB11D8093710123
:100C000090937201A0937301B0937401BF91AF915F
:100C10009F918F913F912F910F900FBE0F901F903A
:100C2000189526E8230F0296A11DB11DD2CF1F9261
:100C30000F920FB60F9211242F933F934F935F9310
:100C40006F937F938F939F93AF93BF93EF93FF9394
:100C500085E791E00E94C201FF91EF91BF91AF91B2
:100C60009F918F917F916F915F914F913F912F91C4
:100C70000F900FBE0F901F9018951F920F920FB6F6
:100C80000F9211242F938F939F93EF93FF93E091F3
:100C90008501F09186018081E0918B01F0918C01BA
:100CA00082FD1BC0908180918E018F5F8F73209198
:100CB0008F01821741F0E0918E01F0E0EB58FE4F7A
:100CC000958F80938E01FF91EF919F918F912F913E
:100CD0000F900FBE0F901F9018958081F4CF1F9238
:100CE0000F920FB60F9211242F933F934F935F9360
:100CF0006F937F938F939F93AF93BF93EF93FF93E4
:100D0000F0E0E0E00995FF91EF91BF91AF919F91E5
:100D10008F917F916F915F914F913F912F910F90A4
:100D20000FBE0F901F9018951092780110927701C6
:100D300088EE93E0A0E0B0E08093790190937A018F
:100D4000A0937B01B0937C018AE091E090937601BF
:100D50008093750185EC90E09093820180938101EE
:100D600084EC90E0909384018093830180EC90E088
:100D7000909386018093850181EC90E090938801A7
:100D80008093870182EC90E090938A01809389019F
:100D900086EC90E090938C0180938B0110928E01F1
:100DA00010928F0110929001109291011092B7024F
:100DB0001092B60281E08093B8021092B90287E0E7
:100DC00090E09093BB028093BA0280E491E090930C
:100DD000B5028093B4021092BC021092BD02109230
:100DE000BE0286E090E09093A9028093A802109240
:100DF000AA021092AB0280E391E09093A702809345
:100E0000A6021092AC021092AD021092AE021092A5
:100E1000AF021092B0021092B1021092B202109280
:100E2000B302E8E3F2E086EA92E0108211821282D5
:100E300013821482158216821782108612861186FA
:100E40003B968E179F0789F7E2EBF0E02491209301
:100E50002402E3EBF0E0E491E09325028EE990E0D8
:100E6000FC013491E32FF0E0EE0FFF1FE057FF4F3E
:100E7000459154915093270240932602EFE9F0E008
:100E8000E491F0E0EE0FFF1FEA57FF4F45915491B8
:100E90005093290240932802FC018491E82FF0E04E
:100EA000EE0FFF1FE458FF4FA591B491B0932B02B2
:100EB000A0932A02109232028FE991E290932D02C0
:100EC00080932C02EC912E2B2C93E0912602F09132
:100ED000270290818091240280958923808384E673
:100EE00090E0909334028093330210923602109275
:100EF000350281E08093370210921502109214029D
:100F000080931602109217028EE090E090931902DF
:100F1000809318028CE191E0909313028093120267
:100F200010921C0210921D0210921E0210921F02BB
:100F30000895789484B5826084BD84B5816084BD51
:100F400085B5826085BD85B5816085BD80916E0067
:100F5000816080936E001092810080918100826098
:100F600080938100809181008160809381008091D5
:100F700080008160809380008091B10084608093C4
:100F8000B1008091B00081608093B00080917A00C0
:100F9000846080937A0080917A00826080937A00E6
:100FA00080917A00816080937A0080917A008068D5
:100FB00080937A001092C100E0918501F091860142
:100FC00082E08083E0918101F09182011082E091C2
:100FD0008301F09184018FEC808310928D01E09168
:100FE0008901F0918A0186E08083E0918701F09188
:100FF0008801808180618083E0918701F091880180
:10100000808188608083E0918701F09188018081F0
:1010100080688083E0918701F091880180818F7DD5
:10102000808384EB92E00E94770381E08093BC028E
:1010300086EA92E00E940B0382E192E00E94FC02A9
:1010400088EE93E0909359018093580184E690E0F4
:1010500090935B0180935A0180ED97E090935D013E
:1010600080935C0180E797E1909361018093600138
:1010700088E5E82E81E0F82E08E312E0D0E0C0E039
:10108000C430D10519F0C8010E949602F701819180
:1010900091917F01092E000CAA0BBB0BF8018483F0
:1010A0009583A683B7832196055F1F4FCA30D1056C
:1010B00039F788E893E0909342028093410287E4F5
:1010C00094E090934D0280934C0289EE94E09093CB
:1010D0005802809357028CE793E090936E028093BE
:1010E0006D0210921602C0E0D0E088E392E00E9408
:1010F0005402882321F088E392E00E9496028091B6
:101100006C02882321F084E692E00E94540283E47A
:1011100092E00E945402882321F083E492E00E942E
:1011200096028EE492E00E945402882321F08EE41D
:1011300092E00E9496022097C1F20E94AE0188239D
:10114000A1F20E940000D1CF5058BB27AA270E94CD
:10115000BC080C94C4090E94B60938F00E94BD096D
:1011600020F039F49F3F19F426F40C94B3090EF4DF
:10117000E095E7FB0C94AD09E92F0E94D50958F3DF
:10118000BA17620773078407950720F079F4A6F56C
:101190000C94F7090EF4E0950B2EBA2FA02D0B013D
:1011A000B90190010C01CA01A0011124FF27591BAC
:1011B00099F0593F50F4503E68F11A16F040A22FB2
:1011C000232F342F4427585FF3CF46953795279523
:1011D000A795F0405395C9F77EF41F16BA0B620B22
:1011E000730B840BBAF09150A1F0FF0FBB1F661F69
:1011F000771F881FC2F70EC0BA0F621F731F841FAC
:1012000048F4879577956795B795F7959E3F08F0D1
:10121000B0CF9395880F08F09927EE0F9795879593
:1012200008950E94890908F481E008950E941D092B
:101230006894B1110C94F80908950E94DD0988F0B2
:101240009F5798F0B92F9927B751B0F0E1F0660F8A
:10125000771F881F991F1AF0BA95C9F714C0B130CB
:1012600091F00E94F709B1E008950C94F709672FF7
:10127000782F8827B85F39F0B93FCCF386957795FA
:101280006795B395D9F73EF49095809570956195E3
:101290007F4F8F4F9F4F0895E89409C097FB3EF40E
:1012A00090958095709561957F4F8F4F9F4F9923B3
:1012B000A9F0F92F96E9BB279395F6958795779531
:1012C0006795B795F111F8CFFAF4BB0F11F460FFF1
:1012D0001BC06F5F7F4F8F4F9F4F16C0882311F049
:1012E00096E911C0772321F09EE8872F762F05C05D
:1012F000662371F096E8862F70E060E02AF09A95F8
:10130000660F771F881FDAF7880F9695879597F9EC
:101310000895990F0008550FAA0BE0E8FEEF161686
:101320001706E807F907C0F012161306E407F507D9
:1013300098F0621B730B840B950B39F40A2661F04D
:10134000232B242B252B21F408950A2609F4A140F0
:10135000A6958FEF811D811D089597F99F6780E8FD
:1013600070E060E008959FEF80EC089500240A94F7
:101370001616170618060906089500240A94121670
:101380001306140605060895092E0394000C11F4A3
:10139000882352F0BB0F40F4BF2B11F460FF04C050
:1013A0006F5F7F4F8F4F9F4F089557FD9058440FA9
:1013B000551F59F05F3F71F04795880F97FB991FB4
:1013C00061F09F3F79F08795089512161306140671
:1013D000551FF2CF4695F1DF08C0161617061806FE
:1013E000991FF1CF86957105610508940895E894D9
:1013F000BB2766277727CB0197F908950E948909B3
:1014000008F48FEF08950E94160A0C94C4090E94F4
:10141000B60938F00E94BD0920F0952311F00C9414
:10142000AD090C94B30911240C94F8090E94D50954
:1014300070F3959FC1F3950F50E0551F629FF00127
:10144000729FBB27F00DB11D639FAA27F00DB11D40
:10145000AA1F649F6627B00DA11D661F829F2227C9
:10146000B00DA11D621F739FB00DA11D621F839F50
:10147000A00D611D221F749F3327A00D611D231F26
:10148000849F600D211D822F762F6A2F11249F5774
:1014900050409AF0F1F088234AF0EE0FFF1FBB1F77
:1014A000661F771F881F91505040A9F79E3F510536
:1014B00080F00C94AD090C94F8095F3FE4F3983E7A
:1014C000D4F3869577956795B795F795E7959F5FE0
:1014D000C1F7FE2B880F911D9695879597F9089572
:1014E000A1E21A2EAA1BBB1BFD010DC0AA1FBB1F28
:1014F000EE1FFF1FA217B307E407F50720F0A21B9A
:10150000B30BE40BF50B661F771F881F991F1A9406
:1015100069F760957095809590959B01AC01BD0130
:10152000CF010895EE0FFF1F0590F491E02D09946F
:101530000F931F93CF93DF938230910510F482E0D5
:1015400090E0E091C102F091C20230E020E0B0E012
:10155000A0E0309799F42115310509F44AC0281B01
:10156000390B24303105D8F58A819B8161157105CD
:1015700089F1FB0193838283FE0111C04081518177
:101580000281138148175907E0F04817590799F469
:10159000109761F012960C93129713961C93329643
:1015A000CF01DF91CF911F910F9108950093C10258
:1015B0001093C202F4CF2115310551F042175307A1
:1015C00038F0A901DB019A01BD01DF01F801C1CFAB
:1015D000EF01F9CF9093C2028093C102CDCFFE01FB
:1015E000E20FF31F819391932250310939832883AD
:1015F000D7CF2091BF023091C002232B41F420911C
:101600000201309103013093C0022093BF02209168
:101610000001309101012115310541F42DB73EB78C
:101620004091040150910501241B350BE091BF024C
:10163000F091C002E217F307A0F42E1B3F0B28170E
:10164000390778F0AC014E5F5F4F2417350748F03B
:101650004E0F5F1F5093C0024093BF02819391933E
:101660009FCFF0E0E0E09CCFCF93DF930097E9F0CD
:10167000FC01329713821282A091C102B091C20282
:10168000ED0130E020E01097A1F420813181820F3C
:10169000931F2091BF023091C0022817390709F02B
:1016A00061C0F093C002E093BF02DF91CF91089533
:1016B000EA01CE17DF07E8F54A815B819E014115FB
:1016C0005105B1F7E901FB83EA8349915991C40FB0
:1016D000D51FEC17FD0761F4808191810296840F7C
:1016E000951FE90199838883828193819B838A83F3
:1016F000F0E0E0E012968D919C9113970097B9F578
:101700002D913C911197CD010296820F931F20914C
:10171000BF023091C0022817390739F6309751F5CA
:101720001092C2021092C102B093C002A093BF02F5
:10173000BCCFD383C28340815181840F951FC817CA
:10174000D90761F44E5F5F4F88819981480F591F17
:10175000518340838A819B81938382832115310544
:1017600009F0B0CFF093C202E093C1029ECFFD0119
:0E177000DC01C0CF13821282D7CFF894FFCFD6
:10177E000000C302800000000000E401440171017A
:10178E003102A20180019401000000005302C7053E
:10179E00FC02CC02AD02C902C602A9020000000082
:1017AE005202CB050B0308030503010300000000E2
:1017BE005102C9057703270322031F031C031803D5
:0417CE000D0A000000
:00000001FF
